{
  "contractName": "GAccounts",
  "abi": [
    {
      "constant": true,
      "inputs": [],
      "name": "minter",
      "outputs": [
        {
          "name": "",
          "type": "address"
        }
      ],
      "payable": false,
      "stateMutability": "view",
      "type": "function"
    },
    {
      "constant": true,
      "inputs": [],
      "name": "trader",
      "outputs": [
        {
          "name": "",
          "type": "address"
        }
      ],
      "payable": false,
      "stateMutability": "view",
      "type": "function"
    },
    {
      "constant": true,
      "inputs": [],
      "name": "owner",
      "outputs": [
        {
          "name": "",
          "type": "address"
        }
      ],
      "payable": false,
      "stateMutability": "view",
      "type": "function"
    },
    {
      "inputs": [],
      "payable": false,
      "stateMutability": "nonpayable",
      "type": "constructor"
    },
    {
      "anonymous": false,
      "inputs": [
        {
          "indexed": true,
          "name": "previousOwner",
          "type": "address"
        }
      ],
      "name": "OwnershipRenounced",
      "type": "event"
    },
    {
      "anonymous": false,
      "inputs": [
        {
          "indexed": true,
          "name": "previousOwner",
          "type": "address"
        },
        {
          "indexed": true,
          "name": "newOwner",
          "type": "address"
        }
      ],
      "name": "OwnershipTransferred",
      "type": "event"
    },
    {
      "anonymous": false,
      "inputs": [
        {
          "indexed": true,
          "name": "previousMinter",
          "type": "address"
        }
      ],
      "name": "MintershipRenounced",
      "type": "event"
    },
    {
      "anonymous": false,
      "inputs": [
        {
          "indexed": true,
          "name": "previousMinter",
          "type": "address"
        },
        {
          "indexed": true,
          "name": "newMinter",
          "type": "address"
        }
      ],
      "name": "MintershipTransferred",
      "type": "event"
    },
    {
      "anonymous": false,
      "inputs": [
        {
          "indexed": true,
          "name": "previousTrader",
          "type": "address"
        }
      ],
      "name": "TradershipRenounced",
      "type": "event"
    },
    {
      "anonymous": false,
      "inputs": [
        {
          "indexed": true,
          "name": "previousTrader",
          "type": "address"
        },
        {
          "indexed": true,
          "name": "newTrader",
          "type": "address"
        }
      ],
      "name": "TradershipTransferred",
      "type": "event"
    },
    {
      "constant": false,
      "inputs": [
        {
          "name": "newOwner",
          "type": "address"
        }
      ],
      "name": "transferOwnership",
      "outputs": [],
      "payable": false,
      "stateMutability": "nonpayable",
      "type": "function"
    },
    {
      "constant": false,
      "inputs": [
        {
          "name": "newMinter",
          "type": "address"
        }
      ],
      "name": "transferMintership",
      "outputs": [],
      "payable": false,
      "stateMutability": "nonpayable",
      "type": "function"
    },
    {
      "constant": false,
      "inputs": [
        {
          "name": "newTrader",
          "type": "address"
        }
      ],
      "name": "transferTradership",
      "outputs": [],
      "payable": false,
      "stateMutability": "nonpayable",
      "type": "function"
    }
  ],
  "bytecode": "0x608060405234801561001057600080fd5b50336000806101000a81548173ffffffffffffffffffffffffffffffffffffffff021916908373ffffffffffffffffffffffffffffffffffffffff16021790555033600160006101000a81548173ffffffffffffffffffffffffffffffffffffffff021916908373ffffffffffffffffffffffffffffffffffffffff16021790555033600260006101000a81548173ffffffffffffffffffffffffffffffffffffffff021916908373ffffffffffffffffffffffffffffffffffffffff1602179055506106eb806100e26000396000f300608060405260043610610078576000357c0100000000000000000000000000000000000000000000000000000000900463ffffffff168063075461721461007d5780631758078b146100d45780638da5cb5b1461012b578063965e405e14610182578063cf86a95a146101c5578063f2fde38b14610208575b600080fd5b34801561008957600080fd5b5061009261024b565b604051808273ffffffffffffffffffffffffffffffffffffffff1673ffffffffffffffffffffffffffffffffffffffff16815260200191505060405180910390f35b3480156100e057600080fd5b506100e9610271565b604051808273ffffffffffffffffffffffffffffffffffffffff1673ffffffffffffffffffffffffffffffffffffffff16815260200191505060405180910390f35b34801561013757600080fd5b50610140610297565b604051808273ffffffffffffffffffffffffffffffffffffffff1673ffffffffffffffffffffffffffffffffffffffff16815260200191505060405180910390f35b34801561018e57600080fd5b506101c3600480360381019080803573ffffffffffffffffffffffffffffffffffffffff1690602001909291905050506102bc565b005b3480156101d157600080fd5b50610206600480360381019080803573ffffffffffffffffffffffffffffffffffffffff169060200190929190505050610413565b005b34801561021457600080fd5b50610249600480360381019080803573ffffffffffffffffffffffffffffffffffffffff16906020019092919050505061056a565b005b600160009054906101000a900473ffffffffffffffffffffffffffffffffffffffff1681565b600260009054906101000a900473ffffffffffffffffffffffffffffffffffffffff1681565b6000809054906101000a900473ffffffffffffffffffffffffffffffffffffffff1681565b6000809054906101000a900473ffffffffffffffffffffffffffffffffffffffff1673ffffffffffffffffffffffffffffffffffffffff163373ffffffffffffffffffffffffffffffffffffffff1614151561031757600080fd5b600073ffffffffffffffffffffffffffffffffffffffff168173ffffffffffffffffffffffffffffffffffffffff161415151561035357600080fd5b8073ffffffffffffffffffffffffffffffffffffffff16600260009054906101000a900473ffffffffffffffffffffffffffffffffffffffff1673ffffffffffffffffffffffffffffffffffffffff167fb4db211ccfcd77e2d39242e25052c5a4e543b89c02d8f454ea8c820961b1035c60405160405180910390a380600260006101000a81548173ffffffffffffffffffffffffffffffffffffffff021916908373ffffffffffffffffffffffffffffffffffffffff16021790555050565b6000809054906101000a900473ffffffffffffffffffffffffffffffffffffffff1673ffffffffffffffffffffffffffffffffffffffff163373ffffffffffffffffffffffffffffffffffffffff1614151561046e57600080fd5b600073ffffffffffffffffffffffffffffffffffffffff168173ffffffffffffffffffffffffffffffffffffffff16141515156104aa57600080fd5b8073ffffffffffffffffffffffffffffffffffffffff16600160009054906101000a900473ffffffffffffffffffffffffffffffffffffffff1673ffffffffffffffffffffffffffffffffffffffff167f5e935a0fc03d597192bc9c182e5261cd65e9c7e65d4489c91f5e1c6c08cc25c060405160405180910390a380600160006101000a81548173ffffffffffffffffffffffffffffffffffffffff021916908373ffffffffffffffffffffffffffffffffffffffff16021790555050565b6000809054906101000a900473ffffffffffffffffffffffffffffffffffffffff1673ffffffffffffffffffffffffffffffffffffffff163373ffffffffffffffffffffffffffffffffffffffff161415156105c557600080fd5b600073ffffffffffffffffffffffffffffffffffffffff168173ffffffffffffffffffffffffffffffffffffffff161415151561060157600080fd5b8073ffffffffffffffffffffffffffffffffffffffff166000809054906101000a900473ffffffffffffffffffffffffffffffffffffffff1673ffffffffffffffffffffffffffffffffffffffff167f8be0079c531659141344cd1fd0a4f28419497f9722a3daafe3b4186f6b6457e060405160405180910390a3806000806101000a81548173ffffffffffffffffffffffffffffffffffffffff021916908373ffffffffffffffffffffffffffffffffffffffff160217905550505600a165627a7a7230582089a7f1981fc47d78de37895e380a52f5a2041cbd5e0958a44daef8c6564f95000029",
  "source": "/* This Source Code Form is subject to the terms of the Mozilla Public\n * License, v. 2.0. If a copy of the MPL was not distributed with this\n * file, You can obtain one at http://mozilla.org/MPL/2.0/.\n */\n\npragma solidity 0.4.24;\n\n\n/**\n * @title Contract for GoldenAcre SQM main accounts\n * @author Jeremias Grenzebach, GoldenAcre B.V.\n * @dev This token contract is to be imported in SQM.sol, an ERC777, pre-standard and ERC20 compatible token contract. \n * It provides basic authorization control functions, this simplifies the implementation of \"user permissions\".\n */\n\n\ncontract GAccounts {\n    \n    address public owner;\n    address public minter;\n    address public trader;\n\n\n  event OwnershipRenounced(address indexed previousOwner);\n  event OwnershipTransferred(\n    address indexed previousOwner,\n    address indexed newOwner\n  );\n  event MintershipRenounced(address indexed previousMinter);\n  event MintershipTransferred(\n    address indexed previousMinter,\n    address indexed newMinter\n  );\n  event TradershipRenounced(address indexed previousTrader);\n  event TradershipTransferred(\n    address indexed previousTrader,\n    address indexed newTrader\n  );\n\n\n  /**\n   * @dev The constructor sets the original `authorities` of the contract to the sender\n   * account.\n   */\n  constructor() public {\n    owner = msg.sender;\n    minter = msg.sender;\n    trader = msg.sender;\n    \n  }\n\n\n//---------------------- Owner ----------------------\n\n  /**\n   * @dev Throws if called by any account other than the owner.\n   */\n  modifier onlyOwner() {\n    require(msg.sender == owner);\n    _;\n  }\n\n  /**\n   * @dev Allows the current owner to transfer control of the contract to a newOwner.\n   * @param newOwner The address to transfer ownership to.\n   */\n  function transferOwnership(address newOwner) public onlyOwner {\n    require(newOwner != address(0));\n    emit OwnershipTransferred(owner, newOwner);\n    owner = newOwner;\n  }\n    \n//---------------------- /Owner ----------------------   \n    \n\n\n\n//---------------------- Minter ---------------------- \n\n  /**\n   * @dev Throws if called by any account other than the minter.\n   */\n  modifier onlyMinter() {\n    require(msg.sender == minter);\n    _;\n  }\n\n  /**\n   * @dev Allows the current OWNER!!! to transfer control of the contract to a newMinter. newMinter is likely to be the land register contract.\n   * @param newMinter The address to transfer mintership to.\n   */\n  function transferMintership(address newMinter) public onlyOwner {\n    require(newMinter != address(0));\n    emit MintershipTransferred(minter, newMinter);\n    minter = newMinter;\n  }\n\n//---------------------- /Minter ---------------------- \n  \n  \n  \n\n//---------------------- Trader ---------------------- \n\n /**\n   * @dev Throws if called by any account other than the trader.\n   */\n  modifier onlyTrader() {\n    require(msg.sender == trader);\n    _;\n  }\n\n  /**\n   * @dev Allows the current OWNER!!! to transfer control of the contract to a newTrader.\n   * @param newTrader The address to transfer mintership to.\n   */\n  function transferTradership(address newTrader) public onlyOwner {\n    require(newTrader != address(0));\n    emit TradershipTransferred(trader, newTrader);\n    trader = newTrader;\n  }\n\n//---------------------- /Trader ---------------------- \n  \n  \n}",
  "sourcePath": "/Users/jeremias/Documents/1Github/GoldenAcre/Smart-Contracts/contracts/GAccounts.sol",
  "compiler": {
    "name": "solc",
    "version": "0.4.24+commit.e67f0147.Emscripten.clang"
  },
  "schemaVersion": "2.0.0",
  "updatedAt": "2018-06-08T10:31:54.293Z"
}