{
  "contractName": "LandRegister",
  "abi": [
    {
      "constant": true,
      "inputs": [],
      "name": "minter",
      "outputs": [
        {
          "name": "",
          "type": "address"
        }
      ],
      "payable": false,
      "stateMutability": "view",
      "type": "function"
    },
    {
      "constant": true,
      "inputs": [],
      "name": "trader",
      "outputs": [
        {
          "name": "",
          "type": "address"
        }
      ],
      "payable": false,
      "stateMutability": "view",
      "type": "function"
    },
    {
      "constant": true,
      "inputs": [
        {
          "name": "",
          "type": "uint256"
        }
      ],
      "name": "records",
      "outputs": [
        {
          "name": "entryHash",
          "type": "bytes32"
        },
        {
          "name": "cadastreID",
          "type": "string"
        },
        {
          "name": "sqmOfEntry",
          "type": "uint256"
        },
        {
          "name": "ownedByGoldenAcre",
          "type": "bool"
        },
        {
          "name": "previousOwner",
          "type": "string"
        },
        {
          "name": "dateOfPurchase",
          "type": "uint256"
        },
        {
          "name": "dateAddedToRegister",
          "type": "uint256"
        },
        {
          "name": "addressOfRegistrationOffice",
          "type": "string"
        },
        {
          "name": "geohash",
          "type": "string"
        },
        {
          "name": "organicFarming",
          "type": "bool"
        },
        {
          "name": "circulatingSQM",
          "type": "uint256"
        }
      ],
      "payable": false,
      "stateMutability": "view",
      "type": "function"
    },
    {
      "constant": true,
      "inputs": [],
      "name": "entryID",
      "outputs": [
        {
          "name": "",
          "type": "uint256"
        }
      ],
      "payable": false,
      "stateMutability": "view",
      "type": "function"
    },
    {
      "constant": true,
      "inputs": [],
      "name": "owner",
      "outputs": [
        {
          "name": "",
          "type": "address"
        }
      ],
      "payable": false,
      "stateMutability": "view",
      "type": "function"
    },
    {
      "constant": false,
      "inputs": [
        {
          "name": "newTrader",
          "type": "address"
        }
      ],
      "name": "transferTradership",
      "outputs": [],
      "payable": false,
      "stateMutability": "nonpayable",
      "type": "function"
    },
    {
      "constant": true,
      "inputs": [],
      "name": "sqmToken",
      "outputs": [
        {
          "name": "",
          "type": "address"
        }
      ],
      "payable": false,
      "stateMutability": "view",
      "type": "function"
    },
    {
      "constant": false,
      "inputs": [
        {
          "name": "newMinter",
          "type": "address"
        }
      ],
      "name": "transferMintership",
      "outputs": [],
      "payable": false,
      "stateMutability": "nonpayable",
      "type": "function"
    },
    {
      "constant": true,
      "inputs": [],
      "name": "numEntries",
      "outputs": [
        {
          "name": "",
          "type": "uint256"
        }
      ],
      "payable": false,
      "stateMutability": "view",
      "type": "function"
    },
    {
      "constant": false,
      "inputs": [
        {
          "name": "newOwner",
          "type": "address"
        }
      ],
      "name": "transferOwnership",
      "outputs": [],
      "payable": false,
      "stateMutability": "nonpayable",
      "type": "function"
    },
    {
      "inputs": [],
      "payable": false,
      "stateMutability": "nonpayable",
      "type": "constructor"
    },
    {
      "payable": true,
      "stateMutability": "payable",
      "type": "fallback"
    },
    {
      "anonymous": false,
      "inputs": [
        {
          "indexed": true,
          "name": "previousOwner",
          "type": "address"
        }
      ],
      "name": "OwnershipRenounced",
      "type": "event"
    },
    {
      "anonymous": false,
      "inputs": [
        {
          "indexed": true,
          "name": "previousOwner",
          "type": "address"
        },
        {
          "indexed": true,
          "name": "newOwner",
          "type": "address"
        }
      ],
      "name": "OwnershipTransferred",
      "type": "event"
    },
    {
      "anonymous": false,
      "inputs": [
        {
          "indexed": true,
          "name": "previousMinter",
          "type": "address"
        }
      ],
      "name": "MintershipRenounced",
      "type": "event"
    },
    {
      "anonymous": false,
      "inputs": [
        {
          "indexed": true,
          "name": "previousMinter",
          "type": "address"
        },
        {
          "indexed": true,
          "name": "newMinter",
          "type": "address"
        }
      ],
      "name": "MintershipTransferred",
      "type": "event"
    },
    {
      "anonymous": false,
      "inputs": [
        {
          "indexed": true,
          "name": "previousTrader",
          "type": "address"
        }
      ],
      "name": "TradershipRenounced",
      "type": "event"
    },
    {
      "anonymous": false,
      "inputs": [
        {
          "indexed": true,
          "name": "previousTrader",
          "type": "address"
        },
        {
          "indexed": true,
          "name": "newTrader",
          "type": "address"
        }
      ],
      "name": "TradershipTransferred",
      "type": "event"
    },
    {
      "constant": false,
      "inputs": [
        {
          "name": "_cadastreID",
          "type": "string"
        },
        {
          "name": "_coordinates",
          "type": "uint256[2]"
        },
        {
          "name": "_sqmOfEntry",
          "type": "uint256"
        },
        {
          "name": "_ownedByGoldenAcre",
          "type": "bool"
        },
        {
          "name": "_previousOwner",
          "type": "string"
        },
        {
          "name": "_dateOfPurchase",
          "type": "uint256"
        },
        {
          "name": "_addressOfRegistrationOffice",
          "type": "string"
        },
        {
          "name": "_geohash",
          "type": "string"
        },
        {
          "name": "_circulatingSQM",
          "type": "uint256"
        }
      ],
      "name": "newEntry",
      "outputs": [
        {
          "name": "proposalID",
          "type": "uint256"
        }
      ],
      "payable": false,
      "stateMutability": "nonpayable",
      "type": "function"
    },
    {
      "constant": false,
      "inputs": [
        {
          "name": "_newTokenAddress",
          "type": "address"
        }
      ],
      "name": "updateToken",
      "outputs": [],
      "payable": false,
      "stateMutability": "nonpayable",
      "type": "function"
    }
  ],
  "bytecode": "0x608060405234801561001057600080fd5b50336000806101000a81548173ffffffffffffffffffffffffffffffffffffffff021916908373ffffffffffffffffffffffffffffffffffffffff16021790555033600160006101000a81548173ffffffffffffffffffffffffffffffffffffffff021916908373ffffffffffffffffffffffffffffffffffffffff16021790555033600260006101000a81548173ffffffffffffffffffffffffffffffffffffffff021916908373ffffffffffffffffffffffffffffffffffffffff160217905550611551806100e26000396000f3006080604052600436106100ba576000357c0100000000000000000000000000000000000000000000000000000000900463ffffffff16806307546172146100bc5780631758078b14610113578063344610671461016a5780633f3b14b9146103955780637ad3def2146103c05780638da5cb5b14610403578063965e405e1461045a578063ae11940a1461049d578063c74af0c2146104f4578063cf86a95a1461069c578063d32a27d5146106df578063f2fde38b1461070a575b005b3480156100c857600080fd5b506100d161074d565b604051808273ffffffffffffffffffffffffffffffffffffffff1673ffffffffffffffffffffffffffffffffffffffff16815260200191505060405180910390f35b34801561011f57600080fd5b50610128610773565b604051808273ffffffffffffffffffffffffffffffffffffffff1673ffffffffffffffffffffffffffffffffffffffff16815260200191505060405180910390f35b34801561017657600080fd5b5061019560048036038101908080359060200190929190505050610799565b604051808c60001916600019168152602001806020018b81526020018a1515151581526020018060200189815260200188815260200180602001806020018715151515815260200186815260200185810385528f818151815260200191508051906020019080838360005b8381101561021b578082015181840152602081019050610200565b50505050905090810190601f1680156102485780820380516001836020036101000a031916815260200191505b5085810384528c818151815260200191508051906020019080838360005b83811015610281578082015181840152602081019050610266565b50505050905090810190601f1680156102ae5780820380516001836020036101000a031916815260200191505b50858103835289818151815260200191508051906020019080838360005b838110156102e75780820151818401526020810190506102cc565b50505050905090810190601f1680156103145780820380516001836020036101000a031916815260200191505b50858103825288818151815260200191508051906020019080838360005b8381101561034d578082015181840152602081019050610332565b50505050905090810190601f16801561037a5780820380516001836020036101000a031916815260200191505b509f5050505050505050505050505050505060405180910390f35b3480156103a157600080fd5b506103aa610a7c565b6040518082815260200191505060405180910390f35b3480156103cc57600080fd5b50610401600480360381019080803573ffffffffffffffffffffffffffffffffffffffff169060200190929190505050610a82565b005b34801561040f57600080fd5b50610418610b21565b604051808273ffffffffffffffffffffffffffffffffffffffff1673ffffffffffffffffffffffffffffffffffffffff16815260200191505060405180910390f35b34801561046657600080fd5b5061049b600480360381019080803573ffffffffffffffffffffffffffffffffffffffff169060200190929190505050610b46565b005b3480156104a957600080fd5b506104b2610c9d565b604051808273ffffffffffffffffffffffffffffffffffffffff1673ffffffffffffffffffffffffffffffffffffffff16815260200191505060405180910390f35b34801561050057600080fd5b50610686600480360381019080803590602001908201803590602001908080601f0160208091040260200160405190810160405280939291908181526020018383808284378201915050505050509192919290806040019060028060200260405190810160405280929190826002602002808284378201915050505050919291929080359060200190929190803515159060200190929190803590602001908201803590602001908080601f016020809104026020016040519081016040528093929190818152602001838380828437820191505050505050919291929080359060200190929190803590602001908201803590602001908080601f0160208091040260200160405190810160405280939291908181526020018383808284378201915050505050509192919290803590602001908201803590602001908080601f016020809104026020016040519081016040528093929190818152602001838380828437820191505050505050919291929080359060200190929190505050610cc3565b6040518082815260200191505060405180910390f35b3480156106a857600080fd5b506106dd600480360381019080803573ffffffffffffffffffffffffffffffffffffffff169060200190929190505050611047565b005b3480156106eb57600080fd5b506106f461119e565b6040518082815260200191505060405180910390f35b34801561071657600080fd5b5061074b600480360381019080803573ffffffffffffffffffffffffffffffffffffffff1690602001909291905050506111a4565b005b600160009054906101000a900473ffffffffffffffffffffffffffffffffffffffff1681565b600260009054906101000a900473ffffffffffffffffffffffffffffffffffffffff1681565b6006818154811015156107a857fe5b90600052602060002090600d0201600091509050806000015490806001018054600181600116156101000203166002900480601f01602080910402602001604051908101604052809291908181526020018280546001816001161561010002031660029004801561085a5780601f1061082f5761010080835404028352916020019161085a565b820191906000526020600020905b81548152906001019060200180831161083d57829003601f168201915b5050505050908060040154908060050160009054906101000a900460ff1690806006018054600181600116156101000203166002900480601f0160208091040260200160405190810160405280929190818152602001828054600181600116156101000203166002900480156109115780601f106108e657610100808354040283529160200191610911565b820191906000526020600020905b8154815290600101906020018083116108f457829003601f168201915b505050505090806007015490806008015490806009018054600181600116156101000203166002900480601f0160208091040260200160405190810160405280929190818152602001828054600181600116156101000203166002900480156109bb5780601f10610990576101008083540402835291602001916109bb565b820191906000526020600020905b81548152906001019060200180831161099e57829003601f168201915b50505050509080600a018054600181600116156101000203166002900480601f016020809104026020016040519081016040528092919081815260200182805460018160011615610100020316600290048015610a595780601f10610a2e57610100808354040283529160200191610a59565b820191906000526020600020905b815481529060010190602001808311610a3c57829003601f168201915b50505050509080600b0160009054906101000a900460ff169080600c015490508b565b60045481565b6000809054906101000a900473ffffffffffffffffffffffffffffffffffffffff1673ffffffffffffffffffffffffffffffffffffffff163373ffffffffffffffffffffffffffffffffffffffff16141515610add57600080fd5b80600560006101000a81548173ffffffffffffffffffffffffffffffffffffffff021916908373ffffffffffffffffffffffffffffffffffffffff16021790555050565b6000809054906101000a900473ffffffffffffffffffffffffffffffffffffffff1681565b6000809054906101000a900473ffffffffffffffffffffffffffffffffffffffff1673ffffffffffffffffffffffffffffffffffffffff163373ffffffffffffffffffffffffffffffffffffffff16141515610ba157600080fd5b600073ffffffffffffffffffffffffffffffffffffffff168173ffffffffffffffffffffffffffffffffffffffff1614151515610bdd57600080fd5b8073ffffffffffffffffffffffffffffffffffffffff16600260009054906101000a900473ffffffffffffffffffffffffffffffffffffffff1673ffffffffffffffffffffffffffffffffffffffff167fb4db211ccfcd77e2d39242e25052c5a4e543b89c02d8f454ea8c820961b1035c60405160405180910390a380600260006101000a81548173ffffffffffffffffffffffffffffffffffffffff021916908373ffffffffffffffffffffffffffffffffffffffff16021790555050565b600560009054906101000a900473ffffffffffffffffffffffffffffffffffffffff1681565b6000806000809054906101000a900473ffffffffffffffffffffffffffffffffffffffff1673ffffffffffffffffffffffffffffffffffffffff163373ffffffffffffffffffffffffffffffffffffffff16141515610d2157600080fd5b60068054809190600101610d3591906112f9565b6004819055506006600454815481101515610d4c57fe5b90600052602060002090600d020190508a8a8b8b8b8b8b8b8b8b604051808b805190602001908083835b602083101515610d9b5780518252602082019150602081019050602083039250610d76565b6001836020036101000a0380198251168184511680821785525050505050509050018a600260200280838360005b83811015610de4578082015181840152602081019050610dc9565b5050505090500189600260200280838360005b83811015610e12578082015181840152602081019050610df7565b5050505090500188815260200187151515157f010000000000000000000000000000000000000000000000000000000000000002815260010186805190602001908083835b602083101515610e7c5780518252602082019150602081019050602083039250610e57565b6001836020036101000a03801982511681845116808217855250505050505090500185815260200184805190602001908083835b602083101515610ed55780518252602082019150602081019050602083039250610eb0565b6001836020036101000a03801982511681845116808217855250505050505090500183805190602001908083835b602083101515610f285780518252602082019150602081019050602083039250610f03565b6001836020036101000a0380198251168184511680821785525050505050509050018281526020019a505050505050505050505060405180910390208160000181600019169055508a816001019080519060200190610f8892919061132b565b508981600201906002610f9c9291906113ab565b50888160040181905550878160050160006101000a81548160ff02191690831515021790555086816006019080519060200190610fda92919061132b565b508581600701819055504281600801819055508481600901908051906020019061100592919061132b565b508381600a01908051906020019061101e92919061132b565b508281600c01819055506001600454016003819055506004549150509998505050505050505050565b6000809054906101000a900473ffffffffffffffffffffffffffffffffffffffff1673ffffffffffffffffffffffffffffffffffffffff163373ffffffffffffffffffffffffffffffffffffffff161415156110a257600080fd5b600073ffffffffffffffffffffffffffffffffffffffff168173ffffffffffffffffffffffffffffffffffffffff16141515156110de57600080fd5b8073ffffffffffffffffffffffffffffffffffffffff16600160009054906101000a900473ffffffffffffffffffffffffffffffffffffffff1673ffffffffffffffffffffffffffffffffffffffff167f5e935a0fc03d597192bc9c182e5261cd65e9c7e65d4489c91f5e1c6c08cc25c060405160405180910390a380600160006101000a81548173ffffffffffffffffffffffffffffffffffffffff021916908373ffffffffffffffffffffffffffffffffffffffff16021790555050565b60035481565b6000809054906101000a900473ffffffffffffffffffffffffffffffffffffffff1673ffffffffffffffffffffffffffffffffffffffff163373ffffffffffffffffffffffffffffffffffffffff161415156111ff57600080fd5b600073ffffffffffffffffffffffffffffffffffffffff168173ffffffffffffffffffffffffffffffffffffffff161415151561123b57600080fd5b8073ffffffffffffffffffffffffffffffffffffffff166000809054906101000a900473ffffffffffffffffffffffffffffffffffffffff1673ffffffffffffffffffffffffffffffffffffffff167f8be0079c531659141344cd1fd0a4f28419497f9722a3daafe3b4186f6b6457e060405160405180910390a3806000806101000a81548173ffffffffffffffffffffffffffffffffffffffff021916908373ffffffffffffffffffffffffffffffffffffffff16021790555050565b81548183558181111561132657600d0281600d02836000526020600020918201910161132591906113eb565b5b505050565b828054600181600116156101000203166002900490600052602060002090601f016020900481019282601f1061136c57805160ff191683800117855561139a565b8280016001018555821561139a579182015b8281111561139957825182559160200191906001019061137e565b5b5090506113a791906114aa565b5090565b82600281019282156113da579160200282015b828111156113d95782518255916020019190600101906113be565b5b5090506113e791906114aa565b5090565b6114a791905b808211156114a35760008082016000905560018201600061141291906114cf565b6002820160006114229190611517565b60048201600090556005820160006101000a81549060ff021916905560068201600061144e91906114cf565b6007820160009055600882016000905560098201600061146e91906114cf565b600a8201600061147e91906114cf565b600b820160006101000a81549060ff0219169055600c82016000905550600d016113f1565b5090565b90565b6114cc91905b808211156114c85760008160009055506001016114b0565b5090565b90565b50805460018160011615610100020316600290046000825580601f106114f55750611514565b601f01602090049060005260206000209081019061151391906114aa565b5b50565b5060008155600101600090555600a165627a7a723058200ba3e916fe9f2b7df27f045b5d2b5638117fd8ea3d70f3a4481e5d2b7cc5d47a0029",
  "source": "/* This Source Code Form is subject to the terms of the Mozilla Public\n * License, v. 2.0. If a copy of the MPL was not distributed with this\n * file, You can obtain one at http://mozilla.org/MPL/2.0/.\n */\n\npragma solidity 0.4.24;\n\n/// @title GoldenAcre land register Contract\n/// @author Jeremias Grenzebach, GoldenAcre B.V.\n/// @dev This contract uses the SQM-token contract (ERC777/ERC20)\n\nimport { GAccounts } from \"./GAccounts.sol\";\n\n\n// SQM-token import\ncontract importToken {\n  function mint(uint256, bytes) pure internal {  }\n  function burn(uint256, bytes, bytes) pure internal {  }\n}\n\n\n\n\n\n\n\ncontract LandRegister is GAccounts {\n    \n    uint public numEntries;\n    uint256 public entryID;    //unique identifier in land register\n    importToken public sqmToken;\n    \n    \n    //mapping(uint256 => EntryInLandRegister) records;\n    EntryInLandRegister[] public records;\n    \n    struct EntryInLandRegister {\n        \n        \n        bytes32 entryHash; //Hash über alle untigen Daten\n\n        string cadastreID; //Katasternummer des Grundstücks\n        uint256[2] coordinates; // Längen- und Breitengrade: 43.223383, 27.998749   -  (zusätzlich verschiedene Systeme, damit zukunftssicher: OpenStreetMap, what3words)\n        \n        uint256 sqmOfEntry; //Quadratmeter des Grundstücks\n        \n        bool ownedByGoldenAcre;// Eigentum von GoldenAcre ja/nein\n        string previousOwner; //Verkäufer\n        uint256 dateOfPurchase; //Datum des Kaufs/Verkaufs\n        uint256 dateAddedToRegister; //Datum der Grundbucheintragung\n        string addressOfRegistrationOffice; //Ort des Eintragungsamtes\n        string geohash; // Ein (ipfs-)Link zum PDF des Grundbuchauszuges\n        \n        bool organicFarming; //Ökologisch bewirtschaftet ja/nein\n        \n        uint256 circulatingSQM;\n        \n    }\n    \n    \n    \n    \n    /* -- Constructor -- */\n    //\n    /// @notice Constructor to create SQM\n    constructor()\n    public\n    {\n        \n    }\n    \n    \n\n    \n    \n    \n    /**\n     * Add Record\n     *\n     * @param _cadastreID unique identifier from original land register\n     * @param _coordinates geographical center of the land in format: 43.283383, 26.998749\n     * @param _sqmOfEntry area of the property in square metres\n     * @param _ownedByGoldenAcre -\n     * @param _previousOwner previous owner of the property who sold to goldenAcre B.V.\n     * @param _dateOfPurchase date when GoldenAcre B.V. purchased this land\n     * @param _addressOfRegistrationOffice address where land registry containing this property is based.\n     * @param _geohash -\n     * @param _circulatingSQM Amount of SQM-tokens generated by this land (equals sqmOfEntry)\n     * \n     */\n     \n    function newEntry(\n        string _cadastreID,\n        uint256[2] _coordinates,\n        uint256 _sqmOfEntry,\n        bool _ownedByGoldenAcre,\n        string _previousOwner,\n        uint256 _dateOfPurchase,\n        string _addressOfRegistrationOffice,\n        string _geohash,\n        uint256 _circulatingSQM\n    )\n        public onlyOwner returns (uint proposalID)\n    {\n        entryID = records.length++;\n        EntryInLandRegister storage e = records[entryID];\n        \n        e.entryHash = keccak256(_cadastreID, _coordinates, _coordinates, _sqmOfEntry, _ownedByGoldenAcre, _previousOwner, _dateOfPurchase, _addressOfRegistrationOffice, _geohash, _circulatingSQM);\n        e.cadastreID = _cadastreID;\n        e.coordinates = _coordinates;\n        e.sqmOfEntry = _sqmOfEntry;\n        e.ownedByGoldenAcre = _ownedByGoldenAcre;\n        e.previousOwner = _previousOwner;\n        e.dateOfPurchase = _dateOfPurchase;\n        e.dateAddedToRegister = now;\n        e.addressOfRegistrationOffice = _addressOfRegistrationOffice;\n        e.geohash = _geohash;\n        e.circulatingSQM = _circulatingSQM;\n        \n        //ProposalAdded(proposalID, beneficiary, weiAmount, jobDescription);\n        numEntries = entryID+1;\n\n        return entryID;\n    }\n    \n    \n    \n    \n    \n    \n    \n    \n    \n    \n    \n    function () \n    public \n    payable \n    {\n        // fallback function\n    }\n    \n    \n    /**\n     * Update SQM-token addrress\n     * \n     * @param _newTokenAddress Address of the new SQM-token\n     */\n    \n    function updateToken(address _newTokenAddress) public onlyOwner {\n        sqmToken = importToken(_newTokenAddress);\n    }\n    \n    \n}\n\n\n\n",
  "sourcePath": "/Users/jeremias/Documents/1Github/GoldenAcre/Smart-Contracts/contracts/LandRegister.sol",
  "compiler": {
    "name": "solc",
    "version": "0.4.24+commit.e67f0147.Emscripten.clang"
  },
  "schemaVersion": "2.0.0",
  "updatedAt": "2018-06-08T10:31:54.293Z"
}