{
  "contractName": "SQM",
  "abi": [
    {
      "constant": true,
      "inputs": [],
      "name": "minter",
      "outputs": [
        {
          "name": "",
          "type": "address"
        }
      ],
      "payable": false,
      "stateMutability": "view",
      "type": "function"
    },
    {
      "constant": true,
      "inputs": [],
      "name": "trader",
      "outputs": [
        {
          "name": "",
          "type": "address"
        }
      ],
      "payable": false,
      "stateMutability": "view",
      "type": "function"
    },
    {
      "constant": true,
      "inputs": [],
      "name": "owner",
      "outputs": [
        {
          "name": "",
          "type": "address"
        }
      ],
      "payable": false,
      "stateMutability": "view",
      "type": "function"
    },
    {
      "constant": false,
      "inputs": [
        {
          "name": "newTrader",
          "type": "address"
        }
      ],
      "name": "transferTradership",
      "outputs": [],
      "payable": false,
      "stateMutability": "nonpayable",
      "type": "function"
    },
    {
      "constant": false,
      "inputs": [
        {
          "name": "newMinter",
          "type": "address"
        }
      ],
      "name": "transferMintership",
      "outputs": [],
      "payable": false,
      "stateMutability": "nonpayable",
      "type": "function"
    },
    {
      "constant": false,
      "inputs": [
        {
          "name": "newOwner",
          "type": "address"
        }
      ],
      "name": "transferOwnership",
      "outputs": [],
      "payable": false,
      "stateMutability": "nonpayable",
      "type": "function"
    },
    {
      "inputs": [],
      "payable": false,
      "stateMutability": "nonpayable",
      "type": "constructor"
    },
    {
      "anonymous": false,
      "inputs": [
        {
          "indexed": true,
          "name": "operator",
          "type": "address"
        },
        {
          "indexed": true,
          "name": "from",
          "type": "address"
        },
        {
          "indexed": true,
          "name": "to",
          "type": "address"
        },
        {
          "indexed": false,
          "name": "amount",
          "type": "uint256"
        },
        {
          "indexed": false,
          "name": "userData",
          "type": "bytes"
        },
        {
          "indexed": false,
          "name": "operatorData",
          "type": "bytes"
        }
      ],
      "name": "Sent",
      "type": "event"
    },
    {
      "anonymous": false,
      "inputs": [
        {
          "indexed": true,
          "name": "operator",
          "type": "address"
        },
        {
          "indexed": true,
          "name": "to",
          "type": "address"
        },
        {
          "indexed": false,
          "name": "amount",
          "type": "uint256"
        },
        {
          "indexed": false,
          "name": "operatorData",
          "type": "bytes"
        }
      ],
      "name": "Minted",
      "type": "event"
    },
    {
      "anonymous": false,
      "inputs": [
        {
          "indexed": true,
          "name": "operator",
          "type": "address"
        },
        {
          "indexed": true,
          "name": "from",
          "type": "address"
        },
        {
          "indexed": false,
          "name": "amount",
          "type": "uint256"
        },
        {
          "indexed": false,
          "name": "userData",
          "type": "bytes"
        },
        {
          "indexed": false,
          "name": "operatorData",
          "type": "bytes"
        }
      ],
      "name": "Burned",
      "type": "event"
    },
    {
      "anonymous": false,
      "inputs": [
        {
          "indexed": true,
          "name": "operator",
          "type": "address"
        },
        {
          "indexed": true,
          "name": "tokenHolder",
          "type": "address"
        }
      ],
      "name": "AuthorizedOperator",
      "type": "event"
    },
    {
      "anonymous": false,
      "inputs": [
        {
          "indexed": true,
          "name": "operator",
          "type": "address"
        },
        {
          "indexed": true,
          "name": "tokenHolder",
          "type": "address"
        }
      ],
      "name": "RevokedOperator",
      "type": "event"
    },
    {
      "anonymous": false,
      "inputs": [
        {
          "indexed": true,
          "name": "from",
          "type": "address"
        },
        {
          "indexed": true,
          "name": "to",
          "type": "address"
        },
        {
          "indexed": false,
          "name": "amount",
          "type": "uint256"
        }
      ],
      "name": "Transfer",
      "type": "event"
    },
    {
      "anonymous": false,
      "inputs": [
        {
          "indexed": true,
          "name": "owner",
          "type": "address"
        },
        {
          "indexed": true,
          "name": "spender",
          "type": "address"
        },
        {
          "indexed": false,
          "name": "amount",
          "type": "uint256"
        }
      ],
      "name": "Approval",
      "type": "event"
    },
    {
      "anonymous": false,
      "inputs": [
        {
          "indexed": true,
          "name": "previousOwner",
          "type": "address"
        }
      ],
      "name": "OwnershipRenounced",
      "type": "event"
    },
    {
      "anonymous": false,
      "inputs": [
        {
          "indexed": true,
          "name": "previousOwner",
          "type": "address"
        },
        {
          "indexed": true,
          "name": "newOwner",
          "type": "address"
        }
      ],
      "name": "OwnershipTransferred",
      "type": "event"
    },
    {
      "anonymous": false,
      "inputs": [
        {
          "indexed": true,
          "name": "previousMinter",
          "type": "address"
        }
      ],
      "name": "MintershipRenounced",
      "type": "event"
    },
    {
      "anonymous": false,
      "inputs": [
        {
          "indexed": true,
          "name": "previousMinter",
          "type": "address"
        },
        {
          "indexed": true,
          "name": "newMinter",
          "type": "address"
        }
      ],
      "name": "MintershipTransferred",
      "type": "event"
    },
    {
      "anonymous": false,
      "inputs": [
        {
          "indexed": true,
          "name": "previousTrader",
          "type": "address"
        }
      ],
      "name": "TradershipRenounced",
      "type": "event"
    },
    {
      "anonymous": false,
      "inputs": [
        {
          "indexed": true,
          "name": "previousTrader",
          "type": "address"
        },
        {
          "indexed": true,
          "name": "newTrader",
          "type": "address"
        }
      ],
      "name": "TradershipTransferred",
      "type": "event"
    },
    {
      "constant": true,
      "inputs": [],
      "name": "name",
      "outputs": [
        {
          "name": "",
          "type": "string"
        }
      ],
      "payable": false,
      "stateMutability": "view",
      "type": "function"
    },
    {
      "constant": true,
      "inputs": [],
      "name": "symbol",
      "outputs": [
        {
          "name": "",
          "type": "string"
        }
      ],
      "payable": false,
      "stateMutability": "view",
      "type": "function"
    },
    {
      "constant": true,
      "inputs": [],
      "name": "granularity",
      "outputs": [
        {
          "name": "",
          "type": "uint256"
        }
      ],
      "payable": false,
      "stateMutability": "view",
      "type": "function"
    },
    {
      "constant": true,
      "inputs": [],
      "name": "totalSupply",
      "outputs": [
        {
          "name": "",
          "type": "uint256"
        }
      ],
      "payable": false,
      "stateMutability": "view",
      "type": "function"
    },
    {
      "constant": true,
      "inputs": [],
      "name": "maxSupply",
      "outputs": [
        {
          "name": "",
          "type": "uint256"
        }
      ],
      "payable": false,
      "stateMutability": "view",
      "type": "function"
    },
    {
      "constant": true,
      "inputs": [
        {
          "name": "_tokenHolder",
          "type": "address"
        }
      ],
      "name": "balanceOf",
      "outputs": [
        {
          "name": "",
          "type": "uint256"
        }
      ],
      "payable": false,
      "stateMutability": "view",
      "type": "function"
    },
    {
      "constant": false,
      "inputs": [
        {
          "name": "_to",
          "type": "address"
        },
        {
          "name": "_amount",
          "type": "uint256"
        }
      ],
      "name": "send",
      "outputs": [],
      "payable": false,
      "stateMutability": "nonpayable",
      "type": "function"
    },
    {
      "constant": false,
      "inputs": [
        {
          "name": "_to",
          "type": "address"
        },
        {
          "name": "_amount",
          "type": "uint256"
        },
        {
          "name": "_userData",
          "type": "bytes"
        }
      ],
      "name": "send",
      "outputs": [],
      "payable": false,
      "stateMutability": "nonpayable",
      "type": "function"
    },
    {
      "constant": false,
      "inputs": [
        {
          "name": "_operator",
          "type": "address"
        }
      ],
      "name": "authorizeOperator",
      "outputs": [],
      "payable": false,
      "stateMutability": "nonpayable",
      "type": "function"
    },
    {
      "constant": false,
      "inputs": [
        {
          "name": "_operator",
          "type": "address"
        }
      ],
      "name": "revokeOperator",
      "outputs": [],
      "payable": false,
      "stateMutability": "nonpayable",
      "type": "function"
    },
    {
      "constant": true,
      "inputs": [
        {
          "name": "_operator",
          "type": "address"
        },
        {
          "name": "_tokenHolder",
          "type": "address"
        }
      ],
      "name": "isOperatorFor",
      "outputs": [
        {
          "name": "",
          "type": "bool"
        }
      ],
      "payable": false,
      "stateMutability": "view",
      "type": "function"
    },
    {
      "constant": false,
      "inputs": [
        {
          "name": "_from",
          "type": "address"
        },
        {
          "name": "_to",
          "type": "address"
        },
        {
          "name": "_amount",
          "type": "uint256"
        },
        {
          "name": "_userData",
          "type": "bytes"
        },
        {
          "name": "_operatorData",
          "type": "bytes"
        }
      ],
      "name": "operatorSend",
      "outputs": [],
      "payable": false,
      "stateMutability": "nonpayable",
      "type": "function"
    },
    {
      "constant": false,
      "inputs": [
        {
          "name": "_amount",
          "type": "uint256"
        },
        {
          "name": "_operatorData",
          "type": "bytes"
        }
      ],
      "name": "mint",
      "outputs": [],
      "payable": false,
      "stateMutability": "nonpayable",
      "type": "function"
    },
    {
      "constant": false,
      "inputs": [
        {
          "name": "_amount",
          "type": "uint256"
        },
        {
          "name": "_userData",
          "type": "bytes"
        },
        {
          "name": "_operatorData",
          "type": "bytes"
        }
      ],
      "name": "burn",
      "outputs": [],
      "payable": false,
      "stateMutability": "nonpayable",
      "type": "function"
    },
    {
      "constant": false,
      "inputs": [],
      "name": "disableERC20",
      "outputs": [],
      "payable": false,
      "stateMutability": "nonpayable",
      "type": "function"
    },
    {
      "constant": false,
      "inputs": [],
      "name": "enableERC20",
      "outputs": [],
      "payable": false,
      "stateMutability": "nonpayable",
      "type": "function"
    },
    {
      "constant": true,
      "inputs": [],
      "name": "decimals",
      "outputs": [
        {
          "name": "",
          "type": "uint8"
        }
      ],
      "payable": false,
      "stateMutability": "view",
      "type": "function"
    },
    {
      "constant": false,
      "inputs": [
        {
          "name": "_to",
          "type": "address"
        },
        {
          "name": "_amount",
          "type": "uint256"
        }
      ],
      "name": "transfer",
      "outputs": [
        {
          "name": "success",
          "type": "bool"
        }
      ],
      "payable": false,
      "stateMutability": "nonpayable",
      "type": "function"
    },
    {
      "constant": false,
      "inputs": [
        {
          "name": "_from",
          "type": "address"
        },
        {
          "name": "_to",
          "type": "address"
        },
        {
          "name": "_amount",
          "type": "uint256"
        }
      ],
      "name": "transferFrom",
      "outputs": [
        {
          "name": "success",
          "type": "bool"
        }
      ],
      "payable": false,
      "stateMutability": "nonpayable",
      "type": "function"
    },
    {
      "constant": false,
      "inputs": [
        {
          "name": "_spender",
          "type": "address"
        },
        {
          "name": "_amount",
          "type": "uint256"
        }
      ],
      "name": "approve",
      "outputs": [
        {
          "name": "success",
          "type": "bool"
        }
      ],
      "payable": false,
      "stateMutability": "nonpayable",
      "type": "function"
    },
    {
      "constant": true,
      "inputs": [
        {
          "name": "_owner",
          "type": "address"
        },
        {
          "name": "_spender",
          "type": "address"
        }
      ],
      "name": "allowance",
      "outputs": [
        {
          "name": "remaining",
          "type": "uint256"
        }
      ],
      "payable": false,
      "stateMutability": "view",
      "type": "function"
    }
  ],
  "bytecode": "0x608060405273991a1bcb077599290d7305493c9a630c20f8b798600360006101000a81548173ffffffffffffffffffffffffffffffffffffffff021916908373ffffffffffffffffffffffffffffffffffffffff1602179055503480156200006657600080fd5b50336000806101000a81548173ffffffffffffffffffffffffffffffffffffffff021916908373ffffffffffffffffffffffffffffffffffffffff16021790555033600160006101000a81548173ffffffffffffffffffffffffffffffffffffffff021916908373ffffffffffffffffffffffffffffffffffffffff16021790555033600260006101000a81548173ffffffffffffffffffffffffffffffffffffffff021916908373ffffffffffffffffffffffffffffffffffffffff1602179055506040805190810160405280600b81526020017f5371756172654d6574657200000000000000000000000000000000000000000081525060049080519060200190620001769291906200042b565b506040805190810160405280600381526020017f53514d000000000000000000000000000000000000000000000000000000000081525060059080519060200190620001c49291906200042b565b506000600781905550640ba43b74006008819055506001600960006101000a81548160ff02191690831515021790555060016006819055506200024c6040805190810160405280600a81526020017f4552433230546f6b656e0000000000000000000000000000000000000000000081525030620002a2640100000000026401000000009004565b6200029c6040805190810160405280600b81526020017f455243373737546f6b656e00000000000000000000000000000000000000000081525030620002a2640100000000026401000000009004565b620004da565b6000826040518082805190602001908083835b602083101515620002dc5780518252602082019150602081019050602083039250620002b5565b6001836020036101000a03801982511681845116808217855250505050505090500191505060405180910390209050600360009054906101000a900473ffffffffffffffffffffffffffffffffffffffff1673ffffffffffffffffffffffffffffffffffffffff166329965a1d3083856040518463ffffffff167c0100000000000000000000000000000000000000000000000000000000028152600401808473ffffffffffffffffffffffffffffffffffffffff1673ffffffffffffffffffffffffffffffffffffffff16815260200183600019166000191681526020018273ffffffffffffffffffffffffffffffffffffffff1673ffffffffffffffffffffffffffffffffffffffff1681526020019350505050600060405180830381600087803b1580156200040d57600080fd5b505af115801562000422573d6000803e3d6000fd5b50505050505050565b828054600181600116156101000203166002900490600052602060002090601f016020900481019282601f106200046e57805160ff19168380011785556200049f565b828001600101855582156200049f579182015b828111156200049e57825182559160200191906001019062000481565b5b509050620004ae9190620004b2565b5090565b620004d791905b80821115620004d3576000816000905550600101620004b9565b5090565b90565b612e5180620004ea6000396000f30060806040526004361061015f576000357c0100000000000000000000000000000000000000000000000000000000900463ffffffff16806306fdde0314610164578063070c87f9146101f4578063075461721461020b578063095ea7b3146102625780631758078b146102c757806318160ddd1461031e57806318e011991461034957806323b872dd14610402578063313ce56714610487578063556f0dc7146104b857806362ad1b83146104e357806370a08231146105dc5780638da5cb5b14610633578063959b8c3f1461068a57806395d89b41146106cd578063965e405e1461075d5780639bd9bbc6146107a0578063a9059cbb14610833578063cf86a95a14610898578063d0679d34146108db578063d5abeb0114610928578063d95b637114610953578063db7fd408146109ce578063dd62ed3e14610a41578063f2fde38b14610ab8578063f922f21614610afb578063fad8b32a14610b12575b600080fd5b34801561017057600080fd5b50610179610b55565b6040518080602001828103825283818151815260200191508051906020019080838360005b838110156101b957808201518184015260208101905061019e565b50505050905090810190601f1680156101e65780820380516001836020036101000a031916815260200191505b509250505060405180910390f35b34801561020057600080fd5b50610209610bf7565b005b34801561021757600080fd5b50610220610cae565b604051808273ffffffffffffffffffffffffffffffffffffffff1673ffffffffffffffffffffffffffffffffffffffff16815260200191505060405180910390f35b34801561026e57600080fd5b506102ad600480360381019080803573ffffffffffffffffffffffffffffffffffffffff16906020019092919080359060200190929190505050610cd4565b604051808215151515815260200191505060405180910390f35b3480156102d357600080fd5b506102dc610de1565b604051808273ffffffffffffffffffffffffffffffffffffffff1673ffffffffffffffffffffffffffffffffffffffff16815260200191505060405180910390f35b34801561032a57600080fd5b50610333610e07565b6040518082815260200191505060405180910390f35b34801561035557600080fd5b5061040060048036038101908080359060200190929190803590602001908201803590602001908080601f0160208091040260200160405190810160405280939291908181526020018383808284378201915050505050509192919290803590602001908201803590602001908080601f0160208091040260200160405190810160405280939291908181526020018383808284378201915050505050509192919290505050610e11565b005b34801561040e57600080fd5b5061046d600480360381019080803573ffffffffffffffffffffffffffffffffffffffff169060200190929190803573ffffffffffffffffffffffffffffffffffffffff169060200190929190803590602001909291905050506111c2565b604051808215151515815260200191505060405180910390f35b34801561049357600080fd5b5061049c6113b4565b604051808260ff1660ff16815260200191505060405180910390f35b3480156104c457600080fd5b506104cd6113d8565b6040518082815260200191505060405180910390f35b3480156104ef57600080fd5b506105da600480360381019080803573ffffffffffffffffffffffffffffffffffffffff169060200190929190803573ffffffffffffffffffffffffffffffffffffffff16906020019092919080359060200190929190803590602001908201803590602001908080601f0160208091040260200160405190810160405280939291908181526020018383808284378201915050505050509192919290803590602001908201803590602001908080601f01602080910402602001604051908101604052809392919081815260200183838082843782019150505050505091929192905050506113e2565b005b3480156105e857600080fd5b5061061d600480360381019080803573ffffffffffffffffffffffffffffffffffffffff16906020019092919050505061140e565b6040518082815260200191505060405180910390f35b34801561063f57600080fd5b50610648611457565b604051808273ffffffffffffffffffffffffffffffffffffffff1673ffffffffffffffffffffffffffffffffffffffff16815260200191505060405180910390f35b34801561069657600080fd5b506106cb600480360381019080803573ffffffffffffffffffffffffffffffffffffffff16906020019092919050505061147c565b005b3480156106d957600080fd5b506106e26115a9565b6040518080602001828103825283818151815260200191508051906020019080838360005b83811015610722578082015181840152602081019050610707565b50505050905090810190601f16801561074f5780820380516001836020036101000a031916815260200191505b509250505060405180910390f35b34801561076957600080fd5b5061079e600480360381019080803573ffffffffffffffffffffffffffffffffffffffff16906020019092919050505061164b565b005b3480156107ac57600080fd5b50610831600480360381019080803573ffffffffffffffffffffffffffffffffffffffff16906020019092919080359060200190929190803590602001908201803590602001908080601f01602080910402602001604051908101604052809392919081815260200183838082843782019150505050505091929192905050506117a2565b005b34801561083f57600080fd5b5061087e600480360381019080803573ffffffffffffffffffffffffffffffffffffffff169060200190929190803590602001909291905050506117c7565b604051808215151515815260200191505060405180910390f35b3480156108a457600080fd5b506108d9600480360381019080803573ffffffffffffffffffffffffffffffffffffffff16906020019092919050505061181e565b005b3480156108e757600080fd5b50610926600480360381019080803573ffffffffffffffffffffffffffffffffffffffff16906020019092919080359060200190929190505050611975565b005b34801561093457600080fd5b5061093d6119a9565b6040518082815260200191505060405180910390f35b34801561095f57600080fd5b506109b4600480360381019080803573ffffffffffffffffffffffffffffffffffffffff169060200190929190803573ffffffffffffffffffffffffffffffffffffffff1690602001909291905050506119b3565b604051808215151515815260200191505060405180910390f35b3480156109da57600080fd5b50610a3f60048036038101908080359060200190929190803590602001908201803590602001908080601f0160208091040260200160405190810160405280939291908181526020018383808284378201915050505050509192919290505050611a7d565b005b348015610a4d57600080fd5b50610aa2600480360381019080803573ffffffffffffffffffffffffffffffffffffffff169060200190929190803573ffffffffffffffffffffffffffffffffffffffff169060200190929190505050611dab565b6040518082815260200191505060405180910390f35b348015610ac457600080fd5b50610af9600480360381019080803573ffffffffffffffffffffffffffffffffffffffff169060200190929190505050611e4d565b005b348015610b0757600080fd5b50610b10611fa2565b005b348015610b1e57600080fd5b50610b53600480360381019080803573ffffffffffffffffffffffffffffffffffffffff16906020019092919050505061205a565b005b606060048054600181600116156101000203166002900480601f016020809104026020016040519081016040528092919081815260200182805460018160011615610100020316600290048015610bed5780601f10610bc257610100808354040283529160200191610bed565b820191906000526020600020905b815481529060010190602001808311610bd057829003601f168201915b5050505050905090565b6000809054906101000a900473ffffffffffffffffffffffffffffffffffffffff1673ffffffffffffffffffffffffffffffffffffffff163373ffffffffffffffffffffffffffffffffffffffff16141515610c5257600080fd5b6001600960006101000a81548160ff021916908315150217905550610cac6040805190810160405280600a81526020017f4552433230546f6b656e0000000000000000000000000000000000000000000081525030612187565b565b600160009054906101000a900473ffffffffffffffffffffffffffffffffffffffff1681565b6000600960009054906101000a900460ff161515610cf157600080fd5b81600c60003373ffffffffffffffffffffffffffffffffffffffff1673ffffffffffffffffffffffffffffffffffffffff16815260200190815260200160002060008573ffffffffffffffffffffffffffffffffffffffff1673ffffffffffffffffffffffffffffffffffffffff168152602001908152602001600020819055508273ffffffffffffffffffffffffffffffffffffffff163373ffffffffffffffffffffffffffffffffffffffff167f8c5be1e5ebec7d5bd14f71427d1e84f3dd0314c0f7b2291e5b200ac8c7c3b925846040518082815260200191505060405180910390a36001905092915050565b600260009054906101000a900473ffffffffffffffffffffffffffffffffffffffff1681565b6000600754905090565b600160009054906101000a900473ffffffffffffffffffffffffffffffffffffffff1673ffffffffffffffffffffffffffffffffffffffff163373ffffffffffffffffffffffffffffffffffffffff16141515610e6d57600080fd5b610e768361230c565b610ea733600160009054906101000a900473ffffffffffffffffffffffffffffffffffffffff166000868686612345565b82610ed3600160009054906101000a900473ffffffffffffffffffffffffffffffffffffffff1661140e565b10151515610ee057600080fd5b610f5483600a6000600160009054906101000a900473ffffffffffffffffffffffffffffffffffffffff1673ffffffffffffffffffffffffffffffffffffffff1673ffffffffffffffffffffffffffffffffffffffff168152602001908152602001600020546125af90919063ffffffff16565b600a6000600160009054906101000a900473ffffffffffffffffffffffffffffffffffffffff1673ffffffffffffffffffffffffffffffffffffffff1673ffffffffffffffffffffffffffffffffffffffff16815260200190815260200160002081905550610fce836007546125af90919063ffffffff16565b600781905550600160009054906101000a900473ffffffffffffffffffffffffffffffffffffffff1673ffffffffffffffffffffffffffffffffffffffff163373ffffffffffffffffffffffffffffffffffffffff167fa78a9be3a7b862d26933ad85fb11d80ef66b8f972d7cbba06621d583943a4098858585604051808481526020018060200180602001838103835285818151815260200191508051906020019080838360005b83811015611092578082015181840152602081019050611077565b50505050905090810190601f1680156110bf5780820380516001836020036101000a031916815260200191505b50838103825284818151815260200191508051906020019080838360005b838110156110f85780820151818401526020810190506110dd565b50505050905090810190601f1680156111255780820380516001836020036101000a031916815260200191505b509550505050505060405180910390a3600960009054906101000a900460ff16156111bd576000600160009054906101000a900473ffffffffffffffffffffffffffffffffffffffff1673ffffffffffffffffffffffffffffffffffffffff167fddf252ad1be2c89b69c2b068fc378daa952ba7f163c4a11628f55a4df523b3ef856040518082815260200191505060405180910390a35b505050565b6000600960009054906101000a900460ff1615156111df57600080fd5b600c60008573ffffffffffffffffffffffffffffffffffffffff1673ffffffffffffffffffffffffffffffffffffffff16815260200190815260200160002060003373ffffffffffffffffffffffffffffffffffffffff1673ffffffffffffffffffffffffffffffffffffffff16815260200190815260200160002054821115151561126a57600080fd5b6112f982600c60008773ffffffffffffffffffffffffffffffffffffffff1673ffffffffffffffffffffffffffffffffffffffff16815260200190815260200160002060003373ffffffffffffffffffffffffffffffffffffffff1673ffffffffffffffffffffffffffffffffffffffff168152602001908152602001600020546125af90919063ffffffff16565b600c60008673ffffffffffffffffffffffffffffffffffffffff1673ffffffffffffffffffffffffffffffffffffffff16815260200190815260200160002060003373ffffffffffffffffffffffffffffffffffffffff1673ffffffffffffffffffffffffffffffffffffffff168152602001908152602001600020819055506113a9848484602060405190810160405280600081525033602060405190810160405280600081525060006125c8565b600190509392505050565b6000600960009054906101000a900460ff1615156113d157600080fd5b6012905090565b6000600654905090565b6113ec33866119b3565b15156113f757600080fd5b61140785858585338660016125c8565b5050505050565b6000600a60008373ffffffffffffffffffffffffffffffffffffffff1673ffffffffffffffffffffffffffffffffffffffff168152602001908152602001600020549050919050565b6000809054906101000a900473ffffffffffffffffffffffffffffffffffffffff1681565b3373ffffffffffffffffffffffffffffffffffffffff168173ffffffffffffffffffffffffffffffffffffffff16141515156114b757600080fd5b6001600b60008373ffffffffffffffffffffffffffffffffffffffff1673ffffffffffffffffffffffffffffffffffffffff16815260200190815260200160002060003373ffffffffffffffffffffffffffffffffffffffff1673ffffffffffffffffffffffffffffffffffffffff16815260200190815260200160002060006101000a81548160ff0219169083151502179055503373ffffffffffffffffffffffffffffffffffffffff168173ffffffffffffffffffffffffffffffffffffffff167ff4caeb2d6ca8932a215a353d0703c326ec2d81fc68170f320eb2ab49e9df61f960405160405180910390a350565b606060058054600181600116156101000203166002900480601f0160208091040260200160405190810160405280929190818152602001828054600181600116156101000203166002900480156116415780601f1061161657610100808354040283529160200191611641565b820191906000526020600020905b81548152906001019060200180831161162457829003601f168201915b5050505050905090565b6000809054906101000a900473ffffffffffffffffffffffffffffffffffffffff1673ffffffffffffffffffffffffffffffffffffffff163373ffffffffffffffffffffffffffffffffffffffff161415156116a657600080fd5b600073ffffffffffffffffffffffffffffffffffffffff168173ffffffffffffffffffffffffffffffffffffffff16141515156116e257600080fd5b8073ffffffffffffffffffffffffffffffffffffffff16600260009054906101000a900473ffffffffffffffffffffffffffffffffffffffff1673ffffffffffffffffffffffffffffffffffffffff167fb4db211ccfcd77e2d39242e25052c5a4e543b89c02d8f454ea8c820961b1035c60405160405180910390a380600260006101000a81548173ffffffffffffffffffffffffffffffffffffffff021916908373ffffffffffffffffffffffffffffffffffffffff16021790555050565b6117c23384848433602060405190810160405280600081525060016125c8565b505050565b6000600960009054906101000a900460ff1615156117e457600080fd5b611814338484602060405190810160405280600081525033602060405190810160405280600081525060006125c8565b6001905092915050565b6000809054906101000a900473ffffffffffffffffffffffffffffffffffffffff1673ffffffffffffffffffffffffffffffffffffffff163373ffffffffffffffffffffffffffffffffffffffff1614151561187957600080fd5b600073ffffffffffffffffffffffffffffffffffffffff168173ffffffffffffffffffffffffffffffffffffffff16141515156118b557600080fd5b8073ffffffffffffffffffffffffffffffffffffffff16600160009054906101000a900473ffffffffffffffffffffffffffffffffffffffff1673ffffffffffffffffffffffffffffffffffffffff167f5e935a0fc03d597192bc9c182e5261cd65e9c7e65d4489c91f5e1c6c08cc25c060405160405180910390a380600160006101000a81548173ffffffffffffffffffffffffffffffffffffffff021916908373ffffffffffffffffffffffffffffffffffffffff16021790555050565b6119a5338383602060405190810160405280600081525033602060405190810160405280600081525060016125c8565b5050565b6000600854905090565b60008173ffffffffffffffffffffffffffffffffffffffff168373ffffffffffffffffffffffffffffffffffffffff161480611a755750600b60008473ffffffffffffffffffffffffffffffffffffffff1673ffffffffffffffffffffffffffffffffffffffff16815260200190815260200160002060008373ffffffffffffffffffffffffffffffffffffffff1673ffffffffffffffffffffffffffffffffffffffff16815260200190815260200160002060009054906101000a900460ff165b905092915050565b600160009054906101000a900473ffffffffffffffffffffffffffffffffffffffff1673ffffffffffffffffffffffffffffffffffffffff163373ffffffffffffffffffffffffffffffffffffffff16141515611ad957600080fd5b611ae28261230c565b600854600754101515611af457600080fd5b611b098260075461297c90919063ffffffff16565b600781905550611b8382600a6000600260009054906101000a900473ffffffffffffffffffffffffffffffffffffffff1673ffffffffffffffffffffffffffffffffffffffff1673ffffffffffffffffffffffffffffffffffffffff1681526020019081526020016000205461297c90919063ffffffff16565b600a6000600260009054906101000a900473ffffffffffffffffffffffffffffffffffffffff1673ffffffffffffffffffffffffffffffffffffffff1673ffffffffffffffffffffffffffffffffffffffff16815260200190815260200160002081905550611c2b336000600260009054906101000a900473ffffffffffffffffffffffffffffffffffffffff16856020604051908101604052806000815250866001612998565b600260009054906101000a900473ffffffffffffffffffffffffffffffffffffffff1673ffffffffffffffffffffffffffffffffffffffff163373ffffffffffffffffffffffffffffffffffffffff167fbcd28e05e57d4bcd5bfcc92a4661d412893e6112c44a2e25d96cfdfc30d5f22e84846040518083815260200180602001828103825283818151815260200191508051906020019080838360005b83811015611ce4578082015181840152602081019050611cc9565b50505050905090810190601f168015611d115780820380516001836020036101000a031916815260200191505b50935050505060405180910390a3600960009054906101000a900460ff1615611da757600260009054906101000a900473ffffffffffffffffffffffffffffffffffffffff1673ffffffffffffffffffffffffffffffffffffffff1660007fddf252ad1be2c89b69c2b068fc378daa952ba7f163c4a11628f55a4df523b3ef846040518082815260200191505060405180910390a35b5050565b6000600960009054906101000a900460ff161515611dc857600080fd5b600c60008473ffffffffffffffffffffffffffffffffffffffff1673ffffffffffffffffffffffffffffffffffffffff16815260200190815260200160002060008373ffffffffffffffffffffffffffffffffffffffff1673ffffffffffffffffffffffffffffffffffffffff16815260200190815260200160002054905092915050565b6000809054906101000a900473ffffffffffffffffffffffffffffffffffffffff1673ffffffffffffffffffffffffffffffffffffffff163373ffffffffffffffffffffffffffffffffffffffff16141515611ea857600080fd5b600073ffffffffffffffffffffffffffffffffffffffff168173ffffffffffffffffffffffffffffffffffffffff1614151515611ee457600080fd5b8073ffffffffffffffffffffffffffffffffffffffff166000809054906101000a900473ffffffffffffffffffffffffffffffffffffffff1673ffffffffffffffffffffffffffffffffffffffff167f8be0079c531659141344cd1fd0a4f28419497f9722a3daafe3b4186f6b6457e060405160405180910390a3806000806101000a81548173ffffffffffffffffffffffffffffffffffffffff021916908373ffffffffffffffffffffffffffffffffffffffff16021790555050565b6000809054906101000a900473ffffffffffffffffffffffffffffffffffffffff1673ffffffffffffffffffffffffffffffffffffffff163373ffffffffffffffffffffffffffffffffffffffff16141515611ffd57600080fd5b6000600960006101000a81548160ff0219169083151502179055506120586040805190810160405280600a81526020017f4552433230546f6b656e000000000000000000000000000000000000000000008152506000612187565b565b3373ffffffffffffffffffffffffffffffffffffffff168173ffffffffffffffffffffffffffffffffffffffff161415151561209557600080fd5b6000600b60008373ffffffffffffffffffffffffffffffffffffffff1673ffffffffffffffffffffffffffffffffffffffff16815260200190815260200160002060003373ffffffffffffffffffffffffffffffffffffffff1673ffffffffffffffffffffffffffffffffffffffff16815260200190815260200160002060006101000a81548160ff0219169083151502179055503373ffffffffffffffffffffffffffffffffffffffff168173ffffffffffffffffffffffffffffffffffffffff167f50546e66e5f44d728365dc3908c63bc5cfeeab470722c1677e3073a6ac294aa160405160405180910390a350565b6000826040518082805190602001908083835b6020831015156121bf578051825260208201915060208101905060208303925061219a565b6001836020036101000a03801982511681845116808217855250505050505090500191505060405180910390209050600360009054906101000a900473ffffffffffffffffffffffffffffffffffffffff1673ffffffffffffffffffffffffffffffffffffffff166329965a1d3083856040518463ffffffff167c0100000000000000000000000000000000000000000000000000000000028152600401808473ffffffffffffffffffffffffffffffffffffffff1673ffffffffffffffffffffffffffffffffffffffff16815260200183600019166000191681526020018273ffffffffffffffffffffffffffffffffffffffff1673ffffffffffffffffffffffffffffffffffffffff1681526020019350505050600060405180830381600087803b1580156122ef57600080fd5b505af1158015612303573d6000803e3d6000fd5b50505050505050565b8061233660065461232860065485612c2290919063ffffffff16565b612c3890919063ffffffff16565b14151561234257600080fd5b50565b6000612386866040805190810160405280601281526020017f455243373737546f6b656e7353656e6465720000000000000000000000000000815250612c70565b905060008173ffffffffffffffffffffffffffffffffffffffff161415156125a6578073ffffffffffffffffffffffffffffffffffffffff166375ab97828888888888886040518763ffffffff167c0100000000000000000000000000000000000000000000000000000000028152600401808773ffffffffffffffffffffffffffffffffffffffff1673ffffffffffffffffffffffffffffffffffffffff1681526020018673ffffffffffffffffffffffffffffffffffffffff1673ffffffffffffffffffffffffffffffffffffffff1681526020018573ffffffffffffffffffffffffffffffffffffffff1673ffffffffffffffffffffffffffffffffffffffff1681526020018481526020018060200180602001838103835285818151815260200191508051906020019080838360005b838110156124d55780820151818401526020810190506124ba565b50505050905090810190601f1680156125025780820380516001836020036101000a031916815260200191505b50838103825284818151815260200191508051906020019080838360005b8381101561253b578082015181840152602081019050612520565b50505050905090810190601f1680156125685780820380516001836020036101000a031916815260200191505b5098505050505050505050600060405180830381600087803b15801561258d57600080fd5b505af11580156125a1573d6000803e3d6000fd5b505050505b50505050505050565b60008282111515156125bd57fe5b818303905092915050565b6125d18561230c565b6125df838888888887612345565b600073ffffffffffffffffffffffffffffffffffffffff168673ffffffffffffffffffffffffffffffffffffffff161415151561261b57600080fd5b84600a60008973ffffffffffffffffffffffffffffffffffffffff1673ffffffffffffffffffffffffffffffffffffffff168152602001908152602001600020541015151561266957600080fd5b6126bb85600a60008a73ffffffffffffffffffffffffffffffffffffffff1673ffffffffffffffffffffffffffffffffffffffff168152602001908152602001600020546125af90919063ffffffff16565b600a60008973ffffffffffffffffffffffffffffffffffffffff1673ffffffffffffffffffffffffffffffffffffffff1681526020019081526020016000208190555061275085600a60008973ffffffffffffffffffffffffffffffffffffffff1673ffffffffffffffffffffffffffffffffffffffff1681526020019081526020016000205461297c90919063ffffffff16565b600a60008873ffffffffffffffffffffffffffffffffffffffff1673ffffffffffffffffffffffffffffffffffffffff168152602001908152602001600020819055506127a283888888888787612998565b8573ffffffffffffffffffffffffffffffffffffffff168773ffffffffffffffffffffffffffffffffffffffff168473ffffffffffffffffffffffffffffffffffffffff167f06b541ddaa720db2b10a4d0cdac39b8d360425fc073085fac19bc82614677987888887604051808481526020018060200180602001838103835285818151815260200191508051906020019080838360005b8381101561285557808201518184015260208101905061283a565b50505050905090810190601f1680156128825780820380516001836020036101000a031916815260200191505b50838103825284818151815260200191508051906020019080838360005b838110156128bb5780820151818401526020810190506128a0565b50505050905090810190601f1680156128e85780820380516001836020036101000a031916815260200191505b509550505050505060405180910390a4600960009054906101000a900460ff1615612973578573ffffffffffffffffffffffffffffffffffffffff168773ffffffffffffffffffffffffffffffffffffffff167fddf252ad1be2c89b69c2b068fc378daa952ba7f163c4a11628f55a4df523b3ef876040518082815260200191505060405180910390a35b50505050505050565b6000818301905082811015151561298f57fe5b80905092915050565b60006129d9866040805190810160405280601581526020017f455243373737546f6b656e73526563697069656e740000000000000000000000815250612c70565b905060008173ffffffffffffffffffffffffffffffffffffffff16141515612bfc578073ffffffffffffffffffffffffffffffffffffffff166223de298989898989896040518763ffffffff167c0100000000000000000000000000000000000000000000000000000000028152600401808773ffffffffffffffffffffffffffffffffffffffff1673ffffffffffffffffffffffffffffffffffffffff1681526020018673ffffffffffffffffffffffffffffffffffffffff1673ffffffffffffffffffffffffffffffffffffffff1681526020018573ffffffffffffffffffffffffffffffffffffffff1673ffffffffffffffffffffffffffffffffffffffff1681526020018481526020018060200180602001838103835285818151815260200191508051906020019080838360005b83811015612b27578082015181840152602081019050612b0c565b50505050905090810190601f168015612b545780820380516001836020036101000a031916815260200191505b50838103825284818151815260200191508051906020019080838360005b83811015612b8d578082015181840152602081019050612b72565b50505050905090810190601f168015612bba5780820380516001836020036101000a031916815260200191505b5098505050505050505050600060405180830381600087803b158015612bdf57600080fd5b505af1158015612bf3573d6000803e3d6000fd5b50505050612c18565b8115612c1757612c0b86612de9565b1515612c1657600080fd5b5b5b5050505050505050565b60008183811515612c2f57fe5b04905092915050565b600080831415612c4b5760009050612c6a565b8183029050818382811515612c5c57fe5b04141515612c6657fe5b8090505b92915050565b600080826040518082805190602001908083835b602083101515612ca95780518252602082019150602081019050602083039250612c84565b6001836020036101000a03801982511681845116808217855250505050505090500191505060405180910390209050600360009054906101000a900473ffffffffffffffffffffffffffffffffffffffff1673ffffffffffffffffffffffffffffffffffffffff1663aabbb8ca85836040518363ffffffff167c0100000000000000000000000000000000000000000000000000000000028152600401808373ffffffffffffffffffffffffffffffffffffffff1673ffffffffffffffffffffffffffffffffffffffff168152602001826000191660001916815260200192505050602060405180830381600087803b158015612da557600080fd5b505af1158015612db9573d6000803e3d6000fd5b505050506040513d6020811015612dcf57600080fd5b810190808051906020019092919050505091505092915050565b60008060008373ffffffffffffffffffffffffffffffffffffffff161415612e145760009150612e1f565b823b90506000811491505b509190505600a165627a7a723058205d22d8513696b13d324c6f6da53b25f27c0a70002b3c0e7142588ffa40be017e0029",
  "source": "/* This Source Code Form is subject to the terms of the Mozilla Public\n * License, v. 2.0. If a copy of the MPL was not distributed with this\n * file, You can obtain one at http://mozilla.org/MPL/2.0/.\n */\n\npragma solidity 0.4.24;\n\n/// @title ERC777 SquareMetre Token (SQM) Contract\n/// @author Jeremias Grenzebach, GoldenAcre B.V.\n/// @dev This token contract is based on ERC777, pre-standard and ERC20 compatible.\n\nimport { ERC820Implementer } from \"../../External-Contracts/eip820/contracts/ERC820Implementer.sol\";\nimport { GAccounts } from \"./GAccounts.sol\";\nimport { SafeMath } from \"../../External-Contracts/openzeppelin-solidity/contracts/math/SafeMath.sol\";\nimport { ERC20Token } from \"../../External-Contracts/ERC777/contracts/ERC20Token.sol\";\nimport { ERC777Token } from \"../../External-Contracts/ERC777/contracts/ERC777Token.sol\";\nimport { ERC777TokensSender } from \"../../External-Contracts/ERC777/contracts/ERC777TokensSender.sol\";\nimport { ERC777TokensRecipient } from \"../../External-Contracts/ERC777/contracts/ERC777TokensRecipient.sol\";\n\n\ncontract SQM is GAccounts, ERC20Token, ERC777Token, ERC820Implementer {\n    using SafeMath for uint256;\n\n    string private mName;\n    string private mSymbol;\n    uint256 private mGranularity;\n    uint256 private mTotalSupply;\n    uint256 private mMaxSupply;\n    \n\n    bool private mErc20compatible;\n\n    mapping(address => uint) private mBalances;\n    mapping(address => mapping(address => bool)) private mAuthorized;\n    mapping(address => mapping(address => uint256)) private mAllowed;\n\n    /* -- Constructor -- */\n    //\n    /// @notice Constructor to create SQM\n    constructor()\n        public\n    {\n        mName = \"SquareMeter\";\n        mSymbol = \"SQM\";\n        mTotalSupply = 0;\n        mMaxSupply = 50000000000;  // 50 billion\n        mErc20compatible = true;\n        mGranularity = 1;\n\n        setInterfaceImplementation(\"ERC20Token\", this);\n        setInterfaceImplementation(\"ERC777Token\", this);\n    }\n\n    /* -- ERC777 Interface Implementation -- */\n    //\n    /// @return the name of the token\n    function name() public constant returns (string) { return mName; }\n\n    /// @return the symbol of the token\n    function symbol() public constant returns (string) { return mSymbol; }\n\n    /// @return the granularity of the token\n    function granularity() public constant returns (uint256) { return mGranularity; }\n\n    /// @return the total supply of the token\n    function totalSupply() public constant returns (uint256) { return mTotalSupply; }\n    \n    /// @return the max supply of the token\n    function maxSupply() public constant returns (uint256) { return mMaxSupply; }\n\n    /// @notice Return the account balance of some account\n    /// @param _tokenHolder Address for which the balance is returned\n    /// @return the balance of `_tokenAddress`.\n    function balanceOf(address _tokenHolder) public constant returns (uint256) { return mBalances[_tokenHolder]; }\n\n    /// @notice Send `_amount` of tokens to address `_to`\n    /// @param _to The address of the recipient\n    /// @param _amount The number of tokens to be sent\n    function send(address _to, uint256 _amount) public {\n        doSend(msg.sender, _to, _amount, \"\", msg.sender, \"\", true);\n    }\n\n    /// @notice Send `_amount` of tokens to address `_to` passing `_userData` to the recipient\n    /// @param _to The address of the recipient\n    /// @param _amount The number of tokens to be sent\n    function send(address _to, uint256 _amount, bytes _userData) public {\n        doSend(msg.sender, _to, _amount, _userData, msg.sender, \"\", true);\n    }\n\n    /// @notice Authorize a third party `_operator` to manage (send) `msg.sender`'s tokens.\n    /// @param _operator The operator that wants to be Authorized\n    function authorizeOperator(address _operator) public {\n        require(_operator != msg.sender);\n        mAuthorized[_operator][msg.sender] = true;\n        emit AuthorizedOperator(_operator, msg.sender);\n    }\n\n    /// @notice Revoke a third party `_operator`'s rights to manage (send) `msg.sender`'s tokens.\n    /// @param _operator The operator that wants to be Revoked\n    function revokeOperator(address _operator) public {\n        require(_operator != msg.sender);\n        mAuthorized[_operator][msg.sender] = false;\n        emit RevokedOperator(_operator, msg.sender);\n    }\n\n    /// @notice Check whether the `_operator` address is allowed to manage the tokens held by `_tokenHolder` address.\n    /// @param _operator address to check if it has the right to manage the tokens\n    /// @param _tokenHolder address which holds the tokens to be managed\n    /// @return `true` if `_operator` is authorized for `_tokenHolder`\n    function isOperatorFor(address _operator, address _tokenHolder) public constant returns (bool) {\n        return _operator == _tokenHolder || mAuthorized[_operator][_tokenHolder];\n    }\n\n    /// @notice Send `_amount` of tokens on behalf of the address `from` to the address `to`.\n    /// @param _from The address holding the tokens being sent\n    /// @param _to The address of the recipient\n    /// @param _amount The number of tokens to be sent\n    /// @param _userData Data generated by the user to be sent to the recipient\n    /// @param _operatorData Data generated by the operator to be sent to the recipient\n    function operatorSend(address _from, address _to, uint256 _amount, bytes _userData, bytes _operatorData) public {\n        require(isOperatorFor(msg.sender, _from));\n        doSend(_from, _to, _amount, _userData, msg.sender, _operatorData, true);\n    }\n\n    /* -- Mint And Burn Functions (not part of the ERC777 standard, only the Events/tokensReceived are) -- */\n    //\n    /// @notice Generates `_amount` tokens to be assigned to `Minter`\n    ///  Sample mint function to showcase the use of the `Minted` event and the logic to notify the recipient.\n    /// @param _amount The quantity of tokens generated\n    /// @param _operatorData Data that will be passed to the recipient as a first transfer\n    function mint(uint256 _amount, bytes _operatorData) public onlyMinter {\n        requireMultiple(_amount);\n        require(mTotalSupply < mMaxSupply);\n        mTotalSupply = mTotalSupply.add(_amount);\n        mBalances[trader] = mBalances[trader].add(_amount);\n\n        callRecipient(msg.sender, 0x0, trader, _amount, \"\", _operatorData, true);\n\n        emit Minted(msg.sender, trader, _amount, _operatorData);\n        if (mErc20compatible) { emit Transfer(0x0, trader, _amount); }\n    }\n\n\n    /// @notice Burns `_amount` tokens from `minter`\n    ///  Sample burn function to showcase the use of the `Burned` event.\n    /// @param _amount The quantity of tokens to burn\n    function burn(uint256 _amount, bytes _userData, bytes _operatorData) public onlyMinter {\n        requireMultiple(_amount);\n\n        callSender(msg.sender, minter, 0x0, _amount, _userData, _operatorData);\n\n        require(balanceOf(minter) >= _amount);\n\n        mBalances[minter] = mBalances[minter].sub(_amount);\n        mTotalSupply = mTotalSupply.sub(_amount);\n\n        emit Burned(msg.sender, minter, _amount, _userData, _operatorData);\n        if (mErc20compatible) { emit Transfer(minter, 0x0, _amount); }\n    }\n\n    /* -- ERC20 Compatible Methods -- */\n    //\n    /// @notice This modifier is applied to erc20 obsolete methods that are\n    ///  implemented only to maintain backwards compatibility. When the erc20\n    ///  compatibility is disabled, this methods will fail.\n    modifier erc20 () {\n        require(mErc20compatible);\n        _;\n    }\n\n    /// @notice Disables the ERC20 interface. This function can only be called\n    ///  by the owner.\n    function disableERC20() public onlyOwner {\n        mErc20compatible = false;\n        setInterfaceImplementation(\"ERC20Token\", 0x0);\n    }\n\n    /// @notice Re enables the ERC20 interface. This function can only be called\n    ///  by the owner.\n    function enableERC20() public onlyOwner {\n        mErc20compatible = true;\n        setInterfaceImplementation(\"ERC20Token\", this);\n    }\n\n    /// @notice For Backwards compatibility\n    /// @return The decimls of the token. Forced to 18 in ERC777.\n    function decimals() public erc20 constant returns (uint8) { return uint8(18); }\n\n    /// @notice ERC20 backwards compatible transfer.\n    /// @param _to The address of the recipient\n    /// @param _amount The number of tokens to be transferred\n    /// @return `true`, if the transfer can't be done, it should fail.\n    function transfer(address _to, uint256 _amount) public erc20 returns (bool success) {\n        doSend(msg.sender, _to, _amount, \"\", msg.sender, \"\", false);\n        return true;\n    }\n\n    /// @notice ERC20 backwards compatible transferFrom\n    /// @param _from The address holding the tokens being transferred\n    /// @param _to The address of the recipient\n    /// @param _amount The number of tokens to be transferred\n    /// @return `true`, if the transfer can't be done, it should fail.\n    function transferFrom(address _from, address _to, uint256 _amount) public erc20 returns (bool success) {\n        require(_amount <= mAllowed[_from][msg.sender]);\n\n        // Cannot be after doSend because of tokensReceived re-entry\n        mAllowed[_from][msg.sender] = mAllowed[_from][msg.sender].sub(_amount);\n        doSend(_from, _to, _amount, \"\", msg.sender, \"\", false);\n        return true;\n    }\n\n    /// @notice ERC20 backwards compatible approve.\n    ///  `msg.sender` approves `_spender` to spend `_amount` tokens on its behalf.\n    /// @param _spender The address of the account able to transfer the tokens\n    /// @param _amount The number of tokens to be approved for transfer\n    /// @return `true`, if the approve can't be done, it should fail.\n    function approve(address _spender, uint256 _amount) public erc20 returns (bool success) {\n        mAllowed[msg.sender][_spender] = _amount;\n        emit Approval(msg.sender, _spender, _amount);\n        return true;\n    }\n\n    /// @notice ERC20 backwards compatible allowance.\n    ///  This function makes it easy to read the `allowed[]` map\n    /// @param _owner The address of the account that owns the token\n    /// @param _spender The address of the account able to transfer the tokens\n    /// @return Amount of remaining tokens of _owner that _spender is allowed\n    ///  to spend\n    function allowance(address _owner, address _spender) public erc20 constant returns (uint256 remaining) {\n        return mAllowed[_owner][_spender];\n    }\n\n    /* -- Helper Functions -- */\n    //\n    /// @notice Internal function that ensures `_amount` is multiple of the granularity\n    /// @param _amount The quantity that want's to be checked\n    function requireMultiple(uint256 _amount) internal view {\n        require(_amount.div(mGranularity).mul(mGranularity) == _amount);\n    }\n\n    /// @notice Check whether an address is a regular address or not.\n    /// @param _addr Address of the contract that has to be checked\n    /// @return `true` if `_addr` is a regular address (not a contract)\n    function isRegularAddress(address _addr) internal constant returns(bool) {\n        if (_addr == 0) { return false; }\n        uint size;\n        assembly { size := extcodesize(_addr) } // solhint-disable-line no-inline-assembly\n        return size == 0;\n    }\n\n    /// @notice Helper function actually performing the sending of tokens.\n    /// @param _from The address holding the tokens being sent\n    /// @param _to The address of the recipient\n    /// @param _amount The number of tokens to be sent\n    /// @param _userData Data generated by the user to be passed to the recipient\n    /// @param _operatorData Data generated by the operator to be passed to the recipient\n    /// @param _preventLocking `true` if you want this function to throw when tokens are sent to a contract not\n    ///  implementing `erc777_tokenHolder`.\n    ///  ERC777 native Send functions MUST set this parameter to `true`, and backwards compatible ERC20 transfer\n    ///  functions SHOULD set this parameter to `false`.\n    function doSend(\n        address _from,\n        address _to,\n        uint256 _amount,\n        bytes _userData,\n        address _operator,\n        bytes _operatorData,\n        bool _preventLocking\n    )\n        private\n    {\n        requireMultiple(_amount);\n\n        callSender(_operator, _from, _to, _amount, _userData, _operatorData);\n\n        require(_to != address(0));          // forbid sending to 0x0 (=burning)\n        require(mBalances[_from] >= _amount); // ensure enough funds\n\n        mBalances[_from] = mBalances[_from].sub(_amount);\n        mBalances[_to] = mBalances[_to].add(_amount);\n\n        callRecipient(_operator, _from, _to, _amount, _userData, _operatorData, _preventLocking);\n\n        emit Sent(_operator, _from, _to, _amount, _userData, _operatorData);\n        if (mErc20compatible) { emit Transfer(_from, _to, _amount); }\n    }\n\n    /// @notice Helper function that checks for ERC777TokensRecipient on the recipient and calls it.\n    ///  May throw according to `_preventLocking`\n    /// @param _from The address holding the tokens being sent\n    /// @param _to The address of the recipient\n    /// @param _amount The number of tokens to be sent\n    /// @param _userData Data generated by the user to be passed to the recipient\n    /// @param _operatorData Data generated by the operator to be passed to the recipient\n    /// @param _preventLocking `true` if you want this function to throw when tokens are sent to a contract not\n    ///  implementing `ERC777TokensRecipient`.\n    ///  ERC777 native Send functions MUST set this parameter to `true`, and backwards compatible ERC20 transfer\n    ///  functions SHOULD set this parameter to `false`.\n    function callRecipient(\n        address _operator,\n        address _from,\n        address _to,\n        uint256 _amount,\n        bytes _userData,\n        bytes _operatorData,\n        bool _preventLocking\n    ) private {\n        address recipientImplementation = interfaceAddr(_to, \"ERC777TokensRecipient\");\n        if (recipientImplementation != 0) {\n            ERC777TokensRecipient(recipientImplementation).tokensReceived(\n                _operator, _from, _to, _amount, _userData, _operatorData);\n        } else if (_preventLocking) {\n            require(isRegularAddress(_to));\n        }\n    }\n\n    /// @notice Helper function that checks for ERC777TokensSender on the sender and calls it.\n    ///  May throw according to `_preventLocking`\n    /// @param _from The address holding the tokens being sent\n    /// @param _to The address of the recipient\n    /// @param _amount The amount of tokens to be sent\n    /// @param _userData Data generated by the user to be passed to the recipient\n    /// @param _operatorData Data generated by the operator to be passed to the recipient\n    ///  implementing `ERC777TokensSender`.\n    ///  ERC777 native Send functions MUST set this parameter to `true`, and backwards compatible ERC20 transfer\n    ///  functions SHOULD set this parameter to `false`.\n    function callSender(\n        address _operator,\n        address _from,\n        address _to,\n        uint256 _amount,\n        bytes _userData,\n        bytes _operatorData\n    ) private {\n        address senderImplementation = interfaceAddr(_from, \"ERC777TokensSender\");\n        if (senderImplementation != 0) {\n            ERC777TokensSender(senderImplementation).tokensToSend(\n                _operator, _from, _to, _amount, _userData, _operatorData);\n        }\n    }\n}\n",
  "sourcePath": "/Users/jeremias/Documents/1Github/GoldenAcre/Smart-Contracts/contracts/SQM.sol",
  "compiler": {
    "name": "solc",
    "version": "0.4.24+commit.e67f0147.Emscripten.clang"
  },
  "schemaVersion": "2.0.0",
  "updatedAt": "2018-06-08T10:31:54.295Z"
}